:100000009BC00000B4C00000B2C00000B0C000003F
:10001000AEC00000ACC00000AAC00000A8C0000034
:10002000A6C00000A4C00000A2C0000081C400005F
:100030009EC000009CC000009AC0000098C0000054
:1000400096C0000094C0000092C0000090C0000064
:100050008EC000008CC000008AC0000003C10000F8
:1000600086C0000084C0000082C0000080C0000084
:100070007EC00000140348004F00520049005000A9
:10008000410044002000530000001C0348004F00C2
:1000900052004900200043004F002E002C004C006D
:1000A000540044002E000000040309040902290042
:1000B000010100807D090400000203000000092105
:1000C0001101000122500007050203400005070549
:1000D000810340000512010002000000400D0FC125
:1000E0000072050102000105010905A101150025A5
:1000F00001350045017501950E05091901290E818B
:10010000029502810105012507463B017504950111
:1001100065140939814265009501810126FF004679
:10012000FF0009300931093209357508950481024B
:10013000750895018101C00011241FBECFEFD2E0E8
:10014000DEBFCDBF11E0A0E0B1E0E8EBFDE002C012
:1001500005900D92A230B107D9F721E0A2E0B1E0FD
:1001600001C01D92A932B207E1F79FD123C648CF43
:100170009C011092C80086E08093CA001092CB00C8
:10018000B90137FF02C06F5F7F4F75956795CB014F
:10019000770FAA0BBB0BBC01CD01605C7D4B804F80
:1001A0009F4F032E000C440B550BE2D52150310913
:1001B0003093CD002093CC0088E18093C900539AFE
:1001C0005A9A089584B7877F84BF0FB6F894A8958C
:1001D00080916000886180936000109260000FBE83
:1001E0000895292F332723303105E1F058F42130C9
:1001F000310599F02230310569F589E290E02CEA69
:1002000030E02CC02132310501F12232310511F5E7
:1002100080E590E027EE30E021C082E190E025ED1E
:1002200030E01CC099278130910549F028F00297F1
:1002300089F4E4E7F0E005C0E8EAF0E002C0EAE8AB
:10024000F0E0849190E09F0109C089E090E02EEBFE
:1002500030E004C080E090E020E030E0FA0131833B
:10026000208308951F920F920FB60F9211242F939F
:100270003F938F939F93EF93FF938091C80087FFE5
:10028000FCCF8091CE0090910001913079F48333BE
:1002900049F492E0909300019091C80095FFFCCF43
:1002A0009CEC0FC093E0909300016AC0923061F41F
:1002B0008C3CC1F7109200019091C80095FFFCCFD3
:1002C00093E39093CE005CC091115AC0E09113016A
:1002D00090911201E83098F421E02E0F2093130141
:1002E000F0E0E65FFE4F8083982728E037E0990F23
:1002F00008F493272A95D9F79093120141C09817D3
:1003000089F08F3F49F491E0909300019091C800EB
:1003100095FFFCCF9FEF2EC09091C80095FFFCCFBA
:1003200092E928C020910A0130910B01322723273E
:100330003227309315012093140190910C01909372
:10034000160190910D019093170190910E019093D9
:10035000180190910F0190931901909110019093C1
:100360001A019091110190931B019091C80095FF83
:10037000FCCF91E99093CE001092130110921201DC
:1003800090910001933061F48F3F51F481E08093AC
:1003900000018091C80085FFFCCF8FEF8093CE00D5
:1003A000FF91EF919F918F913F912F910F900FBEF1
:1003B0000F901F90189506DF90E080E80FB6F89434
:1003C00080936100909361000FBE80E09BE4D0DEDB
:1003D000A0C20895089542E360EC82E0DAD142E3DE
:1003E00061EC81E0D6C10895CF93DF93CDB7DEB73E
:1003F00028970FB6F894DEBF0FBECDBF80912001C5
:10040000843009F049C082E08093E9008091E800DF
:1004100082FF12C08091E80085FF09C040E050E0F3
:1004200067E070E0CE010196AFD08111F7CF8091E7
:10043000E8008B778093E80081E08093E900809169
:10044000E80080FF29C08091C9008F778093C900A0
:1004500080910001811104C088E0E4E1F1E003C073
:1004600088E0E2E0F1E0DE01119601900D928A95BC
:10047000E1F78091C90080688093C90040E050E0B6
:1004800068E070E0CE01019635D08111F7CF809100
:10049000E8008E778093E80028960FB6F894DEBFC8
:1004A0000FBECDBFDF91CF91089588E0E2E0F1E08B
:1004B000DF01982F1D929A95E9F790E89093050136
:1004C0009093060190930701909308018093040193
:1004D000A4E1B1E001900D928A95E1F78AE0EAE0AB
:1004E000F1E0DF011D928A95E9F765DF78947CDF02
:1004F00025D4FDCFCF92DF92EF92FF920F931F93FF
:10050000CF93DF93EC018B017A0197D1811133C036
:10051000E114F10439F0F70180819181081B190B76
:10052000C80FD91FC12CD12C0115110519F18091CB
:10053000E80085FD16C08091E8008E778093E80082
:10054000FDD3E114F10449F0F70180819181C80ED7
:10055000D91ED182C08285E00EC06FD1882321F3DD
:100560000AC089918093F10001501109FFEFCF1A61
:10057000DF0ADACF80E0DF91CF911F910F91FF90DA
:10058000EF90DF90CF900895CF92DF92EF92FF929D
:100590000F931F93CF93DF93EC018B017A014DD121
:1005A000811133C0E114F10439F0F70180819181A8
:1005B000081B190BC80FD91FC12CD12C011511050F
:1005C00019F18091E80085FD16C08091E8008B77D5
:1005D0008093E800B3D3E114F10449F0F70180817E
:1005E0009181C80ED91ED182C08285E00EC025D16E
:1005F000882321F30AC08091F100899301501109E9
:10060000FFEFCF1ADF0ADACF80E0DF91CF911F91A1
:100610000F91FF90EF90DF90CF90089520912701E8
:10062000309128012617370748F06115710539F414
:100630002091E8002E772093E80001C0B901FC0169
:1006400020E06115710569F1809120018823E1F1B5
:100650008530E1F18091E80083FD3AC08091E800A7
:1006600082FD2CC08091E80080FFEBCF8091F200EA
:1006700090E06115710551F08034910538F42191B5
:100680002093F100615071090196F3CF21E080348D
:10069000910509F020E08091E8008E778093E800D2
:1006A000D0CF2111D1CF0AC080912001882361F0E1
:1006B000853061F08091E80083FD0AC08091E800F8
:1006C00082FFF2CF80E0089582E0089583E00895EC
:1006D00081E00895209127013091280126173707DE
:1006E00048F06115710539F42091E8002E772093C8
:1006F000E80001C0B901FC0120E06115710581F13C
:1007000080912001882309F43EC0853009F43DC062
:100710008091E80083FD3BC08091E80082FD2DC000
:100720008091E80080FFE9CF8091F20090E06115B0
:10073000710559F08034910540F424912093F10023
:100740003196615071090196F2CF21E08034910514
:1007500009F020E08091E8008E778093E800CDCF0B
:100760002111CECF0AC080912001882361F085300D
:1007700061F08091E80083FD0AC08091E80082FF6B
:10078000F2CF80E0089582E0089583E0089581E04B
:100790000895982F953068F59093E900981739F0EF
:1007A0007091EC002091ED005091F00003C0242FD7
:1007B000762F50E021FD02C09F5FECCF3091EB001F
:1007C0003E7F3093EB003091ED003D7F3093ED00A4
:1007D0003091EB0031603093EB007093EC0020938C
:1007E000ED005093F0002091EE0027FDE5CF80E072
:1007F00008958F708093E90081E008958091210130
:1008000087FF11C08091E80082FD05C08091200122
:100810008111F8CF11C08091E8008B770BC08091D7
:100820002001882349F08091E80080FFF8CF809173
:10083000E8008E778093E80008952091E4003091DD
:10084000E50095E64091EC00842F817040FF23C0C5
:100850008091E80080FD1DC080912001882399F0DF
:10086000853099F08091EB0085FD11C04091E40046
:100870005091E5002417350729F3915011F09A01A2
:10088000E1CF84E0089582E0089583E0089581E057
:10089000089580E008954091E80042FFDDCF08957B
:1008A00041D043D08091D8008F778093D800809139
:1008B000D80080688093D8008091D8008F7D809385
:1008C000D80084E089BD86E089BD09B400FEFDCF73
:1008D0001092200110921C0110921E0110921D0115
:1008E00042E360E080E055DF8091E1008E7F8093FD
:1008F000E1008091E20081608093E2008091E2005B
:1009000088608093E2008091E0008E7F8093E00019
:100910000895E3E6F0E080818E7F808381E080931C
:100920001F01BECF1092E20008951092E1000895D9
:100930001F920F920FB60F9211242F933F934F9354
:100940005F936F937F938F939F93AF93BF93EF9337
:10095000FF938091E10082FF0AC08091E20082FF54
:1009600006C08091E1008B7F8093E100E6D1809109
:10097000E10080FF17C08091E20080FF13C08091EA
:10098000E2008E7F8093E2008091E200806180939C
:10099000E2008091D80080628093D80019BC109248
:1009A000200118DD8091E10084FF2FC08091E200DA
:1009B00084FF2BC084E089BD86E089BD09B400FEB8
:1009C000FDCF8091D8008F7D8093D8008091E10089
:1009D0008F7E8093E1008091E2008F7E8093E20021
:1009E0008091E20081608093E20080911C01882365
:1009F00011F084E007C08091E30087FD02C081E030
:100A000001C083E080932001E4DC8091E10083FF5A
:100A100022C08091E20083FF1EC08091E100877FA9
:100A20008093E10082E08093200110921C0180916C
:100A3000E1008E7F8093E1008091E2008E7F8093C1
:100A4000E2008091E20080618093E20042E360E096
:100A500080E09FDE72D1FF91EF91BF91AF919F91A6
:100A60008F917F916F915F914F913F912F910F9057
:100A70000FBE0F901F9018951F93CF93DF93CDB7A4
:100A8000DEB7AA970FB6F894DEBF0FBECDBFE1E286
:100A9000F1E08091F100819321E0E932F207C9F79A
:100AA000A2DC8091E80083FF30C180912101909108
:100AB0002201953009F483C030F49130A9F168F037
:100AC000933091F122C1983009F4EFC0993009F4C4
:100AD000FBC0963009F019C194C0803821F08238EB
:100AE00009F013C108C080911D0190911E01992346
:100AF00089F082600FC0809125018F70853008F0E9
:100B000004C18093E9008091EB0085FB882780F980
:100B10001092E9009091E800977F9093E80080930D
:100B2000F1001092F100CCC0282F2D7F09F0EDC00C
:100B3000882319F0823061F0E8C080912301813070
:100B400009F0E3C0933009F080E080931E012EC0CD
:100B50008091230181112AC0809125018F702FEF90
:100B6000280F243008F0D1C08093E9002091EB00D9
:100B700020FF1CC0933021F48091EB00806214C0F0
:100B80009091EB0090619093EB0021E030E0A9019F
:100B900002C0440F551F8A95E2F74093EA00109275
:100BA000EA008091EB0088608093EB001092E900EE
:100BB0008091E800877F8093E80020DEA6C0811145
:100BC000A4C0109123011F778091E3008078812BCE
:100BD0008093E3008091E800877F8093E8000EDE39
:100BE0008091E80080FFFCCF8091E30080688093D3
:100BF000E300111102C082E001C083E08093200174
:100C000084C08058823008F080C080912301909188
:100C100024018C3D53E0950771F583E08A838AE2D5
:100C200089834FB7F894DE01139620E03EE051E24D
:100C3000E32FF0E050935700E49120FF03C0E295CA
:100C4000EF703F5FEF708E2F90E0EA3010F0C796A4
:100C500001C0C0968D939D932F5F243149F74FBFFC
:100C60008091E800877F8093E8006AE270E0CE011F
:100C70000196D4DC14C06091250170912601AE016B
:100C80004F5F5F4FAEDABC01892B09F43EC09091F3
:100C9000E800977F9093E80089819A811BDD80911D
:100CA000E8008B778093E80030C0803871F5809140
:100CB000E800877F8093E80080911C018093F10019
:100CC0008091E8008E7777CF81111FC0809123013A
:100CD0009091240199270297C4F48091E800877FBE
:100CE0008093E8008091230180931C0187DD80912F
:100CF0001C01811106C08091E30087FD02C081E0E4
:100D000001C084E08093200166DB8091E80083FFCE
:100D10000AC08091E800877F8093E8008091EB0013
:100D200080628093EB00AA960FB6F894DEBF0FBEE8
:100D3000CDBFDF91CF911F9108950895CF938091FA
:100D40002001882399F0C091E900CF709091EC00C8
:100D5000892F817090FD80E8C82B1092E900809166
:100D6000E80083FD89DECF70C093E900CF9108953C
:100D7000A1E21A2EAA1BBB1BFD010DC0AA1FBB1F9F
:100D8000EE1FFF1FA217B307E407F50720F0A21B11
:100D9000B30BE40BF50B661F771F881F991F1A947E
:100DA00069F760957095809590959B01AC01BD01A8
:080DB000CF010895F894FFCF74
:020DB800030036
:00000001FF
